:020000040000FA
:060000000A128A110C280F
:10000800FE00030EF0000A08F1000A128A11C72B3D
:100018000A128A110F28FA01FB0183132030840089
:1000280032300A128A1181240A128A1183010A12B3
:100038008A118B2951293A08B3003908B2000230D5
:10004800B4000030B5003930BD003D08B6000A12D2
:100058008A1174230A128A118A293A08B3003908C6
:10006800B2000230B4000030B5003B30BD003D089E
:10007800B6000A128A1174230A128A118A293A08C8
:10008800B3003908B2000230B4000030B5003D308A
:10009800BD003D08B6000A128A1174230A128A119B
:1000A8008A293A08B3003908B2000230B400003097
:1000B800B5003F30BD003D08B6000A128A1174230E
:1000C8000A128A118A293A08B3003908B2000230A4
:1000D800B4000030B5004130BD003D08B6000A123A
:1000E8008A1174230A128A118A293A08B300390836
:1000F800B2000230B4000030B5004330BD003D0806
:10010800B6000A128A1174230A128A118A293A0837
:10011800B3003908B2000230B4000030B5004530F1
:10012800BD003D08B6000A128A1174230A128A110A
:100138008A293A08B3003908B2000230B400003006
:10014800B5003730BD003D08B6000A128A11742385
:100158000A128A118A293A08B3003908B200023013
:10016800B4000030B5004730BD003D08B6000A12A3
:100178008A1174230A128A118A293A08B3003908A5
:10018800B2000230B4000030B5004930BD003D086F
:10019800B6000A128A1174230A128A118A293A08A7
:1001A800B3003908B2000230B4000030B5004B305B
:1001B800BD003D08B6000A128A1174230A128A117A
:1001C8008A293A08B3003908B2000230B400003076
:1001D800B5004D30BD003D08B6000A128A117423DF
:1001E8000A128A118A293A08B3003908B200023083
:1001F800B4000030B5004F30BD003D08B6000A120B
:100208008A1174230A128A118A293A08B300390814
:10021800B2000230B4000030B5005130BD003D08D6
:10022800B6000A128A1174230A128A118A293A0816
:10023800B3003908B2000230B4000030B5005330C2
:10024800BD003D08B6000A128A1174230A128A11E9
:100258008A293A08B3003908B2000230B4000030E5
:10026800B5005530BD003D08B6000A128A11742346
:100278000A128A118A293A08B3003908B2000230F2
:10028800B4000030B5003930BD003D08B6000A1290
:100298008A1174230A128A118A29831203133C08CB
:1002A800003A031958293F293B08003A03191F2827
:1002B800013A03193128033A03194328013A03196B
:1002C8005528073A03196728013A03197928033A88
:1002D80003198B28013A03199D280F3A0319AF28EF
:1002E800013A0319C128033A0319D328013A03191B
:1002F800E528073A0319F728013A03190929033AA7
:1003080003191B29013A03192D293F2908000A124C
:100318008A119F230A128A110A128A1148230A1283
:100328008A118230F2000030F3000A128A111B236E
:100338000A128A11003083120313B200B30001308D
:10034800B4000030B5002330BE003E08B6000A12E3
:100358008A1174230A128A118230F2000030F300E5
:100368000A128A111B230A128A11003083120313FE
:10037800B200B3000230B4000030B5003330BE0024
:100388003E08B6000A128A1174230A128A11F43040
:10039800F2000130F3000A128A111B230A128A1193
:1003A800003083120313B200B3000130B4000030F0
:1003B800B5001230BE003E08B6000A128A11742336
:1003C8000A128A11003083120313B200B3000230FC
:1003D800B4000030B5000130BE003E08B6000A1275
:1003E8008A1174230A128A110A128A119E220A1289
:1003F8008A110A128A11E6220A128A11033083121C
:100408000313B9000030BA002D08BC002C08BB004B
:100418000A128A111E200A128A110230831203134B
:10042800B9000030BA002B08BC002A08BB000A1229
:100438008A111E200A128A11093083120313B90087
:100448000030BA002908BC002808BB000A128A112B
:100458001E200A128A11083083120313B9000030D3
:10046800BA002708BC002608BB000A128A111E2001
:100478000A128A11F8290A128A110C2802308A00F5
:100488000408840A820700342034203420342034BD
:1004980020342034203420342034203420342034B4
:1004A800203420342034203400342034413444347F
:1004B80043343134203441344434433432342034E6
:1004C80043344F344E345434203400344534533498
:1004D800543455344134523444344F3420344D3438
:1004E80041344E34433449344F3400343134383491
:1004F800303432343734003430340034313400345A
:100508003234003433340034343400343534003475
:10051800363400343834003439340034413400344B
:100528004234003443340034443400344534003415
:10053800463400347A037B04031DA32AA42AC12A63
:10054800831203131E08B200B3013208B000330847
:10055800B1000030F200F3000A128A1107240A12CF
:100568008A113230F2000030F3000A128A111B237C
:100578000A128A11831203139F147A087B04031D3D
:10058800C62AC72AE52A831203131E08B200B3013C
:100598003208AE003308AF000130F2000030F3003B
:1005A8000A128A1107240A128A113230F200003026
:1005B800F3000A128A111B230A128A1183120313E9
:1005C8009F1408000F30831203133005AC0000306D
:1005D8003105AD00F0303005AA0000303105AB0020
:1005E8002A0E0F39AA002B0EF039AA042B0E0F3948
:1005F800AB00F030AB1D0030AB040F302E05A80067
:1006080000302F05A900F0302E05A60000302F0578
:10061800A700260E0F39A600270EF039A604270ECC
:100628000F39A700F030A71D0030A7040800F50116
:10063800F601392BF701F8010130F7070318F80A1A
:100648000030F8077808803AFF0080307F02031DE9
:100658002F2BFF307702031C322B332B202B01303A
:10066800F5070318F60A0030F6077608803AF40012
:100678007308803A7402031D432B72087502031C29
:10068800462B472B1E2B08008316031308138813C9
:100698008601831203130813881386013230F2008F
:1006A8000030F3000A128A111B230A128A11023041
:1006B8000A128A116C240A128A1138300A128A1115
:1006C8006C240A128A110C300A128A116C240A123C
:1006D8008A1106300A128A116C240A128A1108003B
:1006E800812B3208803EB7003708B800902B3208BB
:1006F800C03EB7003708B800902B831203133508A3
:10070800003A0319882B752B3408013A0319752B05
:10071800033A03197B2B752B38080A128A116C24AB
:100728000A128A118312031336080A128A11E8235F
:100738000A128A11080003308316031788008901FA
:1007480003308316031385000030F200F3000A1209
:100758008A1107240A128A113230F2000030F3009D
:100768000A128A111B230A128A110130FA0000307A
:10077800FB000B17831603130C17831203130C13B8
:100788008B179F140800831203130C1FCC2BCD2B3F
:10079800E12B7A037B04031DD22BD32BD62BFA0132
:1007A800FB01E02B7A087B04031DDB2BDC2BE02B01
:1007B8000130FA000030FB000C1371088A00700E3B
:1007C8008300FE0E7E0E0900F900FA2B79088400DA
:1007D8000A128A1142220A128A110A128A1157240D
:1007E8000A128A110130F8007808F907790884009C
:1007F8000A128A1142220A128A11003A031D052C94
:10080800062CEA2B0800182C831603139F0141308D
:10081800831203139F00252C831603139F01453071
:10082800831203139F00252C7308003A03191D2C0B
:10083800252C7208003A0319082C013A0319102CC8
:10084800252C08008312031388170530F2000030A6
:10085800F3000A128A113F240A128A118312031321
:1008680088130530F2000030F3000A128A113F2481
:100878000A128A110800F501F601482C0130F50723
:100888000318F60A0030F6077608803AF400730871
:10089800803A7402031D522C72087502031C552CF1
:1008A800562C422C0800F700831203130817770808
:1008B80086000A128A1126240A128A113230F2009E
:1008C8000030F3000A128A113F240A128A11080024
:1008D800F900831203130813790886000A128A1193
:1008E80026240A128A110230F2000030F3000A129C
:1008F8008A111B230A128A11080064008001840AE5
:0A0908000406031900340406822CD3
:04400E00F5E3FFFFD8
:00000001FF
