:020000040000FA
:100000000A128A11F62F00308A000408840A820737
:10001000003448344F344C34413400344534473490
:0C0020004D34523400344A345234003461
:100D6200F700831203130813770886000A128A1108
:100D7200F3260A128A110230F0000030F1000A1242
:100D82008A1182270A128A110800F50083120313BE
:100D92000817750886000A128A11F3260A128A11A8
:100DA2003230F0000030F1000A128A11DB260A12FA
:100DB2008A110800F301F401E42E0130F30703184D
:100DC200F40A0030F4077408803AF2007108803A9D
:100DD2007202031DEE2E70087302031CF12EF22E16
:100DE200DE2E08008312031388170530F00000304E
:100DF200F1000A128A11DB260A128A1183120313E6
:100E020088130530F0000030F1000A128A11DB2647
:100E12000A128A110800F7001E2F770884000A12AE
:100E22008A1103200A128A110A128A11C6260A128C
:100E32008A110130F6007608F707770884000A1253
:100E42008A1103200A128A11003A031D292F2A2F20
:100E52000E2F08003C2F7808803EFD007D0883128B
:100E62000313A400492F7808C03EFD007D088312B9
:100E72000313A400492F7B08003A0319412F2C2F9A
:100E82007A08013A03192C2F033A0319342F2C2F15
:100E920024080A128A11B1260A128A117C080A123F
:100EA2008A110C270A128A110800831603130813E9
:100EB20088138601831203130813881386013230C4
:100EC200F0000030F1000A128A1182270A128A11F8
:100ED20002300A128A11B1260A128A1138300A1215
:100EE2008A11B1260A128A110C300A128A11B1260D
:100EF2000A128A1106300A128A11B1260A128A11BE
:100F02000800F301F401A02FF501F6010130F50705
:100F12000318F60A0030F6077608803AFF008030A0
:100F22007F02031D962FFF307502031C992F9A2F03
:100F3200872F0130F3070318F40A0030F40774080E
:100F4200803AF2007108803A7202031DAA2F7008DB
:100F52007302031CAD2FAE2F852F08000A128A11CF
:100F620056270A128A1101300A128A110C270A1214
:100F72008A118230F0000030F1000A128A118227B1
:100F82000A128A110630F8000030F9000130FA0026
:100F92000030FB00063083120313A5002508FC0075
:100FA2000A128A112B270A128A118230F0000030AD
:100FB200F1000A128A1182270A128A110630F800F9
:100FC2000030F9000230FA000030FB000B308312CF
:100FD2000313A5002508FC000A128A112B270A1206
:100FE2008A11F22F0A128A11002883120313A00118
:0E0FF200A101A201A30183010A128A11AF2FEF
:04400E00F5E3FFFFD8
:00000001FF
